S00C0000434F54532E73726563DF
S11300000C942A000C94E2030C9447000C944700CF
S11300100C9447000C9447000C94B3040C943E08D1
S11300200C9447000C948E040C9447000C944D04DB
S11300300C9447000C9463050C9447000C948C05B5
S11300400C940B040C9447000C9447000C94470048
S11300500C94470011241FBECFE5D8E0DEBFCDBF0E
S113006010E0A0E6B0E0E6E9FFE102C005900D92E1
S1130070AA3BB107D9F727E0AAEBB0E001C01D9273
S1130080A335B207E1F70E944F010C94C90F0C94F9
S113009000000E94A0050E9442020E94850140E0E7
S11300A064E08AE00E944C099093BB008093BA00FC
S11300B08091C0009091C1000E94620EEACFCF935C
S11300C0DF931F92CDB7DEB719820E94970189830F
S11300D0882361F020E04AE050E0BE016F5F7F4F6B
S11300E08091BA009091BB000E94760984E690E06A
S11300F00E94F80DEACFCF93DF93CDB7DEB76097B8
S11301000FB6F894DEBF0FBECDBF1982FE01329642
S11301108AE0DF011D928A95E9F73A9685E0DF01CE
S11301201D928A95E9F700E010E04AE050E0BE0134
S11301306F5F7F4F8091BA009091BB000E94080AC4
S11301408981882309F4A6C00E94580289818D32CE
S113015031F08B3221F08F3211F08A3251F4ECE01D
S1130160F0E0EC0FFD1FE10FF11D80831F5F0F5FB7
S113017090C090ED980F993080F4E2E0F0E0EC0F3D
S1130180FD1FE00FF11D9081990F292F220F220FDF
S1130190920F890F805380837CC08D3309F079C01E
S11301A061C08B3251F018F48A3279F158C08D3223
S11301B0C1F08F3209F43FC052C0E02FF0E0A2E05A
S11301C0B0E0AC0FBD1FAE0FBF1F9C91319622E073
S11301D030E02C0F3D1FE20FF31F8081890F8083D5
S11301E03EC0E02FF0E0A2E0B0E0AC0FBD1FAE0FC8
S11301F0BF1F8C913196A2E0B0E0AC0FBD1FEA0F97
S1130200FB1F9081891B80832AC0E02FF0E0A2E0CD
S1130210B0E0AC0FBD1FAE0FBF1F8C91319622E032
S113022030E02C0F3D1FE20FF31F9081899F802D3A
S11302301124808314C0E02FF0E0A2E0B0E0AC0F02
S1130240BD1FAE0FBF1F8C913196A2E0B0E0AC0F82
S1130250BD1FEA0FFB1F60810E94590F80830F5F4F
S11302601F5F02C000E010E0ECE0F0E0EC0FFD1FC7
S1130270E10FF11D8081811194CFE2E0F0E0EC0FF9
S1130280FD1FE00FF11D608170E080E090E00E94AE
S1130290B602198282E390E00E94F80D46CF0F2E39
S11302A0F0ECEF2EF0E0FF2EF02D03E020E030E044
S11302B044E650E060E970E089E490E00E94480C74
S11302C00F2EFEEBEF2EF0E0FF2EF02D01E020E0EC
S11302D030E044E650E06AE970E08FE590E00E9487
S11302E0480C0F2EFCEBEF2EF0E0FF2EF02D02E079
S11302F020E030E044E650E061EA70E08BE790E013
S11303000E94480C0E949C0CFFCF61E08CE00E948C
S11303101A0361E08DE00E941A0361E08EE00E94FE
S11303201A0361E08FE00E941A0381E00895FF92AE
S11303300F931F93CF93DF931F92CDB7DEB7F12CAA
S11303400CE038C060E0802F0E941A031AE12BC031
S1130350BE016F5F7F4F812F0E94A10389818111AC
S113036021C0802F90E00C97212F30E02A513109D1
S1130370880F991F880F991F8B559F4FFC01E20F1F
S1130380F31FF08006C0BE016F5F7F4F812F0E9474
S1130390A10389818823B9F38FE39CE90197F1F7DD
S11303A000C000001F5F1E3198F261E0802F0E94A0
S11303B01A030F5F003130F28F2D0F90DF91CF9130
S11303C01F910F91FF900895CF93C82F60E081E0B3
S11303D00E941A0360E082E00E941A03C4FB6627AD
S11303E060F983E00E941A03C5FB662760F984E084
S11303F00E941A03C6FB662760F985E00E941A036F
S11304006C2F661F6627661F86E00E941A0361E050
S113041082E00E941A038FE99FE00197F1F700C080
S1130420000060E082E00E941A036C2F617083E098
S11304300E941A03C1FB662760F984E00E941A0334
S1130440C2FB662760F985E00E941A03C3FB662796
S113045060F986E00E941A0361E082E00E941A03B8
S11304608FE99FE00197F1F700C0000060E082E0AF
S11304700E941A038FE19EE40197F1F700C0000087
S1130480CF91089583E30E94E40182E30E94E40192
S113049088E20E94E4018CE00E94E40181E00E9471
S11304A0E40186E00E94E40182E00E94E4010895F0
S11304B0CF93C82F61E081E00E941A0360E082E0DC
S11304C00E941A03C4FB662760F983E00E941A03A2
S11304D0C5FB662760F984E00E941A03C6FB662701
S11304E060F985E00E941A036C2F661F6627661F59
S11304F086E00E941A0361E082E00E941A038FE9F9
S11305009FE00197F1F700C0000060E082E00E94E4
S11305101A036C2F617083E00E941A03C1FB6627E3
S113052060F984E00E941A03C2FB662760F985E043
S11305300E941A03C3FB662760F986E00E941A032F
S113054061E082E00E941A038FE99FE00197F1F7CE
S113055000C0000060E082E00E941A038FE19EE484
S11305600197F1F700C00000CF910895CF92DF9278
S1130570EF92FF920F931F938B019C0161157105FC
S11305808105910521F480E30E9458024CC099230F
S11305904CF58DE20E94580246C0DC01CB01880F65
S11305A0991FAA1FBB1F6C017D01CC0CDD1CEE1C26
S11305B0FF1CCC0CDD1CEE1CFF1CC80ED91EEA1E51
S11305C0FB1EC901B8012AE030E040E050E00E947F
S11305D0870F6C0D7D1D8E1D9F1D022F132F242F41
S11305E0352F04C061E070E080E090E01016110641
S11305F01206130694F212C02AE030E040E050E004
S11306000E94870FE22EF32E042F152F80E3860F0E
S11306100E9458026E2D7F2D802F912F623071051C
S1130620810591054CF71F910F91FF90EF90DF909A
S1130630CF900895982F96959695969587706623F2
S113064009F43FC0613009F07BC0913099F028F083
S11306509230E9F0933041F108954BB321E030E05A
S1130660B90102C0660F771F8A95E2F7CB01842B8C
S11306708BBB089548B321E030E0B90102C0660F96
S1130680771F8A95E2F7CB01842B88BB089545B385
S113069021E030E0B90102C0660F771F8A95E2F7C6
S11306A0CB01842B85BB089542B321E030E0B9012E
S11306B002C0660F771F8A95E2F7CB01842B82BBB9
S11306C008959130A1F028F09230F9F0933059F167
S11306D008954BB321E030E0B90102C0660F771FE3
S11306E08A95E2F7CB01809584238BBB089548B3A8
S11306F021E030E0B90102C0660F771F8A95E2F766
S1130700CB018095842388BB089545B321E030E074
S1130710B90102C0660F771F8A95E2F7CB01809575
S1130720842385BB089542B321E030E0B90102C0BF
S1130730660F771F8A95E2F7CB018095842382BBED
S11307400895982F9695969596958770913099F07F
S113075028F09230E9F0933041F1089529B330E064
S1130760A90102C0559547958A95E2F7CA0181709F
S1130770FB018083089526B330E0A90102C055959A
S113078047958A95E2F7CA018170FB018083089539
S113079023B330E0A90102C0559547958A95E2F745
S11307A0CA018170FB018083089520B330E0A90160
S11307B002C0559547958A95E2F7CA018170FB01FD
S11307C0808308951F920F920FB60F9211242F93D6
S11307D03F934F935F936F937F938F939F93AF93C5
S11307E0BF93EF93FF93E091E300F091E40030971F
S11307F009F00995FF91EF91BF91AF919F918F916E
S11308007F916F915F914F913F912F910F900FBE08
S11308100F901F9018951F920F920FB60F921124EC
S11308202F933F934F935F936F937F938F939F93F4
S1130830AF93BF93CF93DF93EF93FF93C0910101E5
S1130840D09102012097B1F024B135B1A8E8B3E109
S11308500E94A60F2FEF33E040E050E00E94650FA6
S11308602093C2003093C3004093C4005093C5004A
S1130870FE010995FF91EF91DF91CF91BF91AF9167
S11308809F918F917F916F915F914F913F912F91A4
S11308900F900FBE0F901F9018951F920F920FB6D6
S11308A00F9211242F933F934F935F936F937F93F2
S11308B08F939F93AF93BF93EF93FF938091DE0049
S11308C08F5F8093DE0090E0A0E0B0E04091CA002A
S11308D05091CB006091CC007091CD0084179507A6
S11308E0A607B70751F4E091F700F091F8000995D5
S11308F01092DE008091C60082BFFF91EF91BF91FC
S1130900AF919F918F917F916F915F914F913F91A3
S11309102F910F900FBE0F901F9018951F920F925A
S11309200FB60F9211248F939F93AF93BF9380912F
S1130930DF009091E000A091E100B091E200019607
S1130940A11DB11D8093DF009093E000A093E1000E
S1130950B093E200BF91AF919F918F910F900FBE22
S11309600F901F9018951F920F920FB60F9211249B
S11309702F933F934F935F936F937F938F939F93A3
S1130980AF93BF93EF93FF938091CE009091CF00EC
S1130990A091D000B091D1000196A11DB11D80930A
S11309A0CE009093CF00A093D000B093D10080915B
S11309B0CE009091CF00A091D000B091D1000197CA
S11309C0A105B105C1F486B597B5A0E0B0E0809368
S11309D0DA009093DB00A093DC00B093DD0010926A
S11309E0DF001092E0001092E1001092E2008EB558
S11309F08F7B8EBD57C08091CE009091CF00A09187
S1130A00D000B091D1000297A105B10501F5E6B57A
S1130A10F7B52091DF003091E0004091E100509162
S1130A20E200AFEFBFEF0E94B50FDC01CB018E0FE8
S1130A309F1FA11DB11D8093D6009093D700A09352
S1130A40D800B093D9008EB580648EBD2BC0809140
S1130A50CE009091CF00A091D000B091D100039727
S1130A60A105B105F9F4E6B5F7B52091DF003091A1
S1130A70E0004091E1005091E200AFEFBFEF0E942F
S1130A80B50FDC01CB018E0F9F1FA11DB11D8093FB
S1130A90D2009093D300A093D400B093D50089B72B
S1130AA08F7D89BFFF91EF91BF91AF919F918F91FE
S1130AB07F916F915F914F913F912F910F900FBE56
S1130AC00F901F9018951F920F920FB60F9211243A
S1130AD02F933F934F935F936F937F938F939F9342
S1130AE0AF93BF93EF93FF93E091FB00F091FC0071
S1130AF0309709F00995FF91EF91BF91AF919F91C4
S1130B008F917F916F915F914F913F912F910F90B2
S1130B100FBE0F901F9018951F920F920FB60F9251
S1130B2011248F9381E080930C0180910B018F5FDE
S1130B3080930B018F910F900FBE0F901F9018950B
S1130B4090E07EC0E92FF0E0EE0FFF1FE05AFF4F68
S1130B508081282F26952695269587703181332309
S1130B60B9F1313009F06BC0213089F028F022301E
S1130B70C9F0233011F163C04AB321E030E002C070
S1130B80220F331F8A95E2F7242B2ABB58C047B3A0
S1130B9021E030E002C0220F331F8A95E2F7242BB4
S1130BA027BB4DC044B321E030E002C0220F331F05
S1130BB08A95E2F7242B24BB42C041B321E030E004
S1130BC002C0220F331F8A95E2F7242B21BB37C0C2
S1130BD0213091F028F02230D9F0233029F12FC0B0
S1130BE04AB321E030E002C0220F331F8A95E2F7B6
S1130BF0209524232ABB23C047B321E030E002C060
S1130C00220F331F8A95E2F72095242327BB17C0B0
S1130C1044B321E030E002C0220F331F8A95E2F78B
S1130C202095242324BB0BC041B321E030E002C053
S1130C30220F331F8A95E2F72095242321BB9F5F5F
S1130C40983108F47FCF0895CF93DF93EC010E948D
S1130C50C60C80910D0190910E01892B31F482E133
S1130C6091E090930E0180930D0120910F0130913A
S1130C701001C9018C0F9D1F8B3D45E0940770F452
S1130C802817390770F4C0910D01D0910E01C20FDD
S1130C90D31F9093100180930F0105C0C0E0D0E0F2
S1130CA002C0C0E0D0E00E94860DCE01DF91CF915A
S1130CB008950895FC010396928381832FEF3FEFFB
S1130CC03483238396838583908787831082089552
S1130CD0FC01118610860895CF93DF939C01FB01DC
S1130CE0DC011196CD91DC911297D383C2838C8160
S1130CF09D81958384838C819D81DC0113967C93F3
S1130D006E9312977D836C8331872087F9018081EC
S1130D108F5F8083DF91CF910895CF93DF93EB01B1
S1130D20488159814F3F2FEF520721F4FC01A781DD
S1130D30B0850DC0DC01139601C0DF011296ED9160
S1130D40FC9113972081318142175307B0F7129613
S1130D50ED91FC911397FB83EA83D583C483BD8310
S1130D60AC831396DC93CE93129799878887FC0102
S1130D7020812F5F2083DF91CF910895CF93DF935C
S1130D80FC01A085B185C281D381848195819D8335
S1130D908C83C481D581828193819B838A831196BC
S1130DA08D919C911297E817F90731F4848195810C
S1130DB012969C938E931197118610868C91815074
S1130DC08C938C91DF91CF9108951BBC89EF8ABDE0
S1130DD08BE08EBD89B7806189BF089531E1FC0144
S1130DE03083319722E220833197A3E3A0833197A4
S1130DF060833197708331971082319760E8608304
S1130E0031971082319762E06083319763E06083A9
S1130E10319764E06083319765E06083319766E0E1
S1130E206083319767E06083319768E0608331972E
S1130E3069E06083319760E1608331973083319753
S1130E4032E13083319733E13083319734E13083B9
S1130E50319735E13083319736E13083319737E18B
S1130E603083319738E13083319739E130833197DA
S1130E7030E23083319731E23083319720833197E8
S1130E8023E220833197408331975083319726E2C0
S1130E902083319727E22083319728E220833197FA
S1130EA029E22083319720E32083319721E32083B3
S1130EB0869708950E94E506A0915107B0915207C4
S1130EC0CD91CDBFDD91DEBFFF91EF91DF91CF9149
S1130ED0BF91AF919F918F917F916F915F914F914E
S1130EE03F912F911F910F91FF90EF90DF90CF9042
S1130EF0BF90AF909F908F907F906F905F904F9036
S1130F003F902F901F900F900FBE0F90089581E097
S1130F1008950F920FB6F8940F921F9211242F92F6
S1130F203F924F925F926F927F928F929F92AF9275
S1130F30BF92CF92DF92EF92FF920F931F932F9362
S1130F403F934F935F936F937F938F939F93AF934D
S1130F50BF93CF93DF93EF93FF93A0915107B09189
S1130F6052070DB60D920EB60D920E940E0EA09170
S1130F705107B0915207CD91CDBFDD91DEBFFF91F6
S1130F80EF91DF91CF91BF91AF919F918F917F911D
S1130F906F915F914F913F912F911F910F91FF900E
S1130FA0EF90DF90CF90BF90AF909F908F907F9005
S1130FB06F905F904F903F902F901F900F900FBEB7
S1130FC00F9008950F920FB6F8940F921F92112468
S1130FD02F923F924F925F926F927F928F929F9245
S1130FE0AF92BF92CF92DF92EF92FF920F931F9333
S1130FF02F933F934F935F936F937F938F939F931D
S1131000AF93BF93CF93DF93EF93FF93A0915107D7
S1131010B09152070DB60D920EB60D920E94CC0CF3
S113102081110E940E0EA0915107B0915207CD91EB
S1131030CDBFDD91DEBFFF91EF91DF91CF91BF91E5
S1131040AF919F918F917F916F915F914F913F915C
S11310502F911F910F91FF90EF90DF90CF90BF9051
S1131060AF909F908F907F906F905F904F903F9044
S11310702F901F900F900FBE0F9008950E94E207CB
S113108018950FB6F8940F92FC01828D811102C05D
S113109081E001C080E00F900FBE08950FB6F89470
S11310A00F92FC01228D838D281302C081E001C0C0
S11310B080E00F900FBE08950F931F93CF93DF939B
S11310C0EC01042F1A8D4C8D4423B9F1011116C083
S11310D050E08A819B810E94C00F2C8D8A819B8164
S11310E0820F911D9B838A832C813D8182179307F4
S11310F020F1888199819B838A831FC050E08E816F
S11311009F810E94C00F8C8D90E0919581959109EB
S11311102E813F81280F391F3F832E8348815981B7
S11311202417350730F42C813D81820F931F9F8350
S11311308E83023011F4111111501F5F1A8F80E059
S1131140DF91CF911F910F910895FC01448D4423A9
S1131150A9F050E026813781240F351F3783268379
S1131160848195812817390720F0808191819783A4
S11311708683CB01668177810E94C00F08951F93F7
S1131180CF93DF93EC010FB6F8940F921E8D0BC032
S11311908989882351F0CE0141960E94C60E81119F
S11311A00E94550F115011169CF38FEF8E8F0F90E4
S11311B00FBE0FB6F8940F921D8D0BC0888588233F
S11311C051F0CE0108960E94C60E81110E94550F5F
S11311D0115011169CF38FEF8D8F0F900FBEDF917E
S11311E0CF911F910895CF93DF93EC010FB6F8943C
S11311F00F92E881F9818B8D2C8D90E030E0829FF5
S1131200A001839F500D929F500D11244E0F5F1F1C
S11312105D834C831A8EFB83EA830197289FA00188
S1131220299F500D389F500D1124CF01840F951F15
S11312309F838E838FEF8D8F8E8F61110CC0888575
S1131240882389F0CE0108960E94C60E882359F09F
S11312500E94890708C0CE0108960E945A06CE0152
S113126041960E945A060F900FBE81E0DF91CF9104
S113127008950F931F93F801611103C01183008334
S113128002C051834083838F648F61E0CF010E9449
S1131290F3081F910F910895DF92EF92FF920F933D
S11312A01F93CF93DF93E82EF62ED42E662321F0DE
S11312B0869FC001112402C080E090E04F960E94F6
S11312C02406EC01009749F08C012D2DAC01415E00
S11312D05F4F6F2D8E2D0E943909CE01DF91CF9182
S11312E01F910F91FF90EF90DF900895CF92DF92BE
S11312F0EF92FF920F931F93CF93DF9300D000D010
S11313001F92CDB7DEB78C017B015D834C83C22E67
S1131310D12C0FB6F8940F92F801928D838D981703
S113132018F0F2E0CF1219C04C2DB701C8010E9489
S11313305C08F8019189992349F0C80141960E94FB
S1131340C60E882331F00E94890703C081110E94D0
S113135089070F900FBE81E04DC08C819D81892B40
S113136021F40F900FBE80E045C0D11006C0CE011D
S113137001960E940E0FDD24D3940F900FBE0E949D
S1131380C60C0FB6F8940F92F801858D8F3F09F4BF
S1131390158EF801868D8F3F09F4168E0F900FBEBF
S11313A0BE016C5F7F4FCE0101960E94190F81111F
S11313B01BC0C8010E944E08882381F06C817D8186
S11313C0C80108960E94B40EC8010E94BF080E947A
S11313D0860D81119ECF0E9489079BCFC8010E9470
S11313E0BF080E94860D95CFC8010E94BF080E94C5
S11313F0860D80E00F900F900F900F900F90DF916B
S1131400CF911F910F91FF90EF90DF90CF900895AF
S1131410CF92DF92EF92FF920F931F93CF93DF93BC
S113142000D000D01F92CDB7DEB78C016B015D8375
S11314304C83E12C0FB6F8940F92F801F28CFF2044
S1131440A9F0B601C8010E94A508FA94F801F28E29
S11314508085882339F0C80108960E94C60E811140
S11314600E9489070F900FBE81E053C08C819D813B
S1131470892B21F40F900FBE80E04BC0E11006C011
S1131480CE0101960E940E0FEE24E3940F900FBE3E
S11314900E94C60C0FB6F8940F92F801858D8F3F09
S11314A009F4158EF801868D8F3F09F4168E0F907E
S11314B00FBEBE016C5F7F4FCE0101960E94190FD3
S11314C081111BC0C8010E944108882381F06C81EE
S11314D07D81C80141960E94B40EC8010E94BF08D4
S11314E00E94860D8111A6CF0E948907A3CFC8014F
S11314F00E94BF080E94860D9DCFC8010E94BF08AC
S11315000E94860DC8010E944108882309F492CFE5
S113151080E00F900F900F900F900F90DF91CF917C
S11315201F910F91FF90EF90DF90CF900895E0917D
S11315301907F0911A078081811107C08FEF9FEF7F
S11315409093F1068093F0060895E0911907F091C5
S11315501A070580F681E02D0680F781E02D82814F
S113156093819093F1068093F0060895CF93DF93CF
S1131570EC018F89988D0E945906CE010E9459066C
S1131580DF91CF9108956F927F928F929F92AF9245
S1131590BF92CF92DF92EF920F931F93CF93DF937B
S11315A0CDB7DEB74C01F5018789908D2150310903
S11315B03C01620E731E6115710589F416C0822FF9
S11315C090E0FB01E80FF91F3081D501A80FB91F86
S11315D059963C938081882329F02F5F01C020E035
S11315E0283068F3F50110A202C0F501118EF3E072
S11315F0FE1520F40F2EF3E0EF2EF02DF501E68A10
S1131600C50102960E946806C5010C960E946806F0
S1131610F501B186A08684E090E08E199109958742
S11316208487B38AA28A11A212A213A214A215A2B9
S1131630A801B401C3010E94EE06F50191838083E1
S1131640C114D10419F0F601B182A082DF91CF91C7
S11316501F910F91EF90DF90CF90BF90AF909F902C
S11316608F907F906F900895CF93C0E010C08C2F1F
S113167090E09C01220F331F220F331F220F331FD0
S1131680820F931F835D984F0E945A06CF5FC43028
S113169070F384E297E00E945A068BE197E00E947F
S11316A05A068EE097E00E945A0685E097E00E9471
S11316B05A068BEF96E00E945A0684E297E09093D4
S11316C01A07809319078BE197E09093180780938A
S11316D01707CF910895CF93DF93EC010FB6F894D9
S11316E00F928091FA068F5F8093FA0680915107DA
S11316F090915207892B59F4D0935207C093510704
S11317008091FA06813099F40E94340B10C08091C4
S1131710F60681110CC0E0915107F09152079689A9
S11317208E89891720F0D0935207C0935107809176
S1131730F2068F5F8093F2068E899091F7069817D0
S113174010F48093F70690E09C01220F331F220FC0
S1131750331F220F331F820F931FBE016E5F7F4F13
S1131760835D984F0E946C060F900FBE8091F60621
S1131770882351F0E0915107F091520796898E89A0
S1131780981710F40E948907DF91CF910895CF93A1
S1131790DF931CC00FB6F8940F92E0910A07F09102
S11317A00B07C681D781CE0102960E94BE068091A6
S11317B0FA0681508093FA06809104078150809341
S11317C004070F900FBECE010E94B60A8091040751
S11317D08111E0CFDF91CF9108950E94C70BFDCF17
S11317E0FF920F931F93CF93DF93EC01F62E00919A
S11317F0F8061091F90680915107909152070296CC
S11318000E94BE06CF3F8FEFD80769F4FF2059F03E
S113181060915107709152076E5F7F4F8BEF96E096
S11318200E946C062FC0C00FD11FE0915107F091A8
S11318305207D383C283C017D10768F4609151075C
S11318407091520780911707909118076E5F7F4F30
S11318500E948D0617C060915107709152078091C4
S1131860190790911A076E5F7F4F0E948D06809131
S1131870F0069091F106C817D90720F4D093F10629
S1131880C093F006DF91CF911F910F91FF900895BF
S11318902F923F924F925F926F927F928F929F927C
S11318A0AF92BF92CF92DF92EF92FF920F931F936A
S11318B0CF93DF933C011B015A012901CA010E9405
S11318C024066C01892B71F086E290E00E942406C4
S11318D0EC01892B19F0D88ECF8A06C0C6010E946C
S11318E0590602C0C0E0D0E0209791F0950140E095
S11318F050E0812C912C5E016701E02E8201B10140
S1131900C3010E94C30ACE010E946B0B81E001C097
S11319108FEFDF91CF911F910F91FF90EF90DF90A8
S1131920CF90BF90AF909F908F907F906F905F907B
S11319304F903F902F900895EF92FF920F930F2EA8
S1131940FEEEEF2EF6E0FF2EF02D00E020E030E07A
S113195045E550E065EB70E08DEE9BE00E94480C9D
S1131960813081F4F8948FEF9FEF9093F106809388
S1131970F00681E08093F6061092F9061092F806BC
S11319800E945A070F91FF90EF9008958091ED0601
S11319908F5F8093ED060895DF92EF92FF920F938D
S11319A01F93CF93DF938091ED06811197C0E09050
S11319B0F806F090F9068FEFE81AF80AF092F906A3
S11319C0E092F806E114F104B9F4809119079091BA
S11319D01A07209117073091180730931A0720939C
S11319E0190790931807809317078091F3068F5F68
S11319F08093F3060E94970A8091F0069091F10675
S1131A00E816F90628F4D12C53C0DD24D39401C080
S1131A10D12CE0911907F0911A078081811107C038
S1131A208FEF9FEF9093F1068093F00641C0E09111
S1131A301907F0911A070580F681E02DC681D78138
S1131A408A819B81E816F90628F49093F106809325
S1131A50F0062EC08E010E5F1F4FC8010E94BE0605
S1131A608C899D89892B21F0CE010C960E94BE069B
S1131A708E899091F706981710F48093F70690E0FA
S1131A809C01220F331F220F331F220F331F820F9B
S1131A90931FB801835D984F0E946C069E89E09164
S1131AA05107F09152078689981708F0AECFB1CF4D
S1131AB0E0915107F0915207868990E0FC01EE0F06
S1131AC0FF1FEE0FFF1FEE0FFF1F8E0F9F1FFC0166
S1131AD0E35DF84F8081823040F409C08091F506BF
S1131AE08F5F8093F506D12C02C0DD24D3948091BE
S1131AF0F406882311F0DD24D3948D2DDF91CF914A
S1131B001F910F91FF90EF90DF9008950F931F9313
S1131B10CF93DF930FB6F8940F928091ED06815026
S1131B208093ED068091ED06811158C08091FA06EC
S1131B30811133C056C0E0911307F0911407C68198
S1131B40D781CE010C960E94BE068E010E5F1F4FF8
S1131B50C8010E94BE068E899091F706981710F46A
S1131B608093F70690E09C01220F331F220F331F4E
S1131B70220F331F820F931FB801835D984F0E9479
S1131B806C069E89E0915107F09152078689981757
S1131B9030F081E08093F40602C0C0E0D0E0809190
S1131BA00E078111C8CFCD2B11F00E94970AC09166
S1131BB0F506CC2359F00E94CC0C882319F081E05F
S1131BC08093F406C150B9F71092F5068091F4069B
S1131BD0882331F00E94890781E003C080E001C0BE
S1131BE080E00F900FBEDF91CF911F910F91089568
S1131BF0CF93DF93EC01892B49F00E94C60C60E07F
S1131C00CE010E94F00B0E94860D01C080E081117C
S1131C1002C00E948907DF91CF9108958091ED065B
S1131C20882321F081E08093F40608951092F4064D
S1131C302091F70601C02150822F90E0FC01EE0FA5
S1131C40FF1FEE0FFF1FEE0FFF1FE80FF91FE35DED
S1131C50F84F3081332379F3AC01440F551F440FFF
S1131C60551F440F551F480F591FDF010180F28192
S1131C70E02D0280F381E02D1296FC93EE931197F0
S1131C80405D584FE417F50729F442815381FD0163
S1131C9052834183FC01EE0FFF1FEE0FFF1FEE0F77
S1131CA0FF1F8E0F9F1FFC01E35DF84F0180F2813F
S1131CB0E02D86819781909352078093510720935A
S1131CC0F70608950F931F93CF93DF93EC010FB69C
S1131CD0F8940F92892B21F4C0915107D0915207A7
S1131CE08E010E5F1F4FC8010E94BE068C899D891C
S1131CF0892B21F0CE010C960E94BE06B8018BEF11
S1131D0096E00E946C068DA1813009F41DA20F900B
S1131D100FBE8091F606882339F00FB6F8940F921F
S1131D200E94970A0F900FBE80915107909152071D
S1131D30C817D907A1F48091F606882319F00E94E8
S1131D4089070DC09091FB068091FA06981305C08F
S1131D50109252071092510702C00E940E0EDF919A
S1131D60CF911F910F910895CF93DF93EB01609171
S1131D70510770915207645F7F4F0E948D0661E0A6
S1131D80CE010E94F00BDF91CF9108950F931F9322
S1131D90CF93DF93DC011596ED91FC911697C681E4
S1131DA0D7818E01045F1F4FC8010E94BE06809137
S1131DB0ED0681111CC00A501109C8010E94BE061B
S1131DC08E899091F706981710F48093F70690E0A7
S1131DD09C01220F331F220F331F220F331F820F48
S1131DE0931FB801835D984F0E946C0605C0B8012B
S1131DF08EE097E00E946C069E89E0915107F09175
S1131E0052078689891720F481E08093F40601C083
S1131E1080E0DF91CF911F910F9108952091F306F7
S1131E20FC0120832091F8063091F9063283218346
S1131E3008951F93CF93DF930FB6F8940F92E09118
S1131E40F806F091F906DC0111964D915C91129718
S1131E50DF01A41BB50BEB01288139812F3FDFEF94
S1131E603D07D1F0EC011881C091F3061C1719F05D
S1131E70E417F50798F4A217B30748F4FB012A1BEB
S1131E803B0B318320830E940E0F80E008C0FB01CE
S1131E901182108281E003C080E001C081E00F90D4
S1131EA00FBEDF91CF911F91089581E08093F406D6
S1131EB00895991B79E004C0991F961708F0961BA2
S1131EC0881F7A95C9F780950895A1E21A2EAA1B56
S1131ED0BB1BFD010DC0AA1FBB1FEE1FFF1FA217D6
S1131EE0B307E407F50720F0A21BB30BE40BF50BD3
S1131EF0661F771F881F991F1A9469F7609570955C
S1131F00809590959B01AC01BD01CF010895052EEC
S1131F1097FB1EF400940E949E0F57FD07D00E9469
S1131F20650F07FC03D04EF40C949E0F509540951A
S1131F30309521953F4F4F4F5F4F08959095809571
S1131F40709561957F4F8F4F9F4F0895A29FB00169
S1131F50B39FC001A39F700D811D1124911DB29FD9
S1131F60700D811D1124911D08950E94A60FA59F37
S1131F70900DB49F900DA49F800D911D1124089580
S1131F80FB01DC0102C001900D9241505040D8F792
S1091F900895F894FFCF50
S1131F9601010201030104010501060109010A0107
S1131FA60B010C010D010E010F0119001A001B0093
S1131FB61C001D001E001F000000000000000000A1
S1131FC6496E69745F5461736B006B617970616407
S1131FD6004C4344003132332F3435362A373839EE
S10D1FE62D63303D2B49444C4500A7
S9030000FC
